:020000040800F2
:10000000603600200101000835260008552300084D
:1000100031260008C5010008ED4600080000000078
:10002000000000000000000000000000A1290008FE
:10003000AD0300080000000071290008D529000860
:100040001B0100081B0100081B0100081B01000820
:100050001B0100081B0100081B0100081B01000810
:100060001B0100081B0100081B0100081B01000800
:100070002103000831030008410300085103000870
:1000800061030008710300081B0100081B01000840
:10009000614600081B0100081B0100081B01000845
:1000A0001B0100081B0100081B0100081B010008C0
:1000B0001B0100081B0100081B0100081B010008B0
:1000C0001B0100081B0100081B0100081B010008A0
:1000D0001B010008ED2C00083D2D0008912D0008A3
:1000E0001B0100081B0100081B010008DFF80CD0F1
:1000F00000F02AF800480047BD470008603600209D
:100100000648804706480047FEE7FEE7FEE7FEE7B1
:10011000FEE7FEE7FEE7FEE7FEE7FEE7652A0008EA
:10012000ED000008D2B201E000F8012B491EFBD21D
:1001300070470022F6E710B513460A4604461946F2
:10014000FFF7F0FF204610BD064C074D06E0E068C3
:1001500040F0010394E8070098471034AC42F6D30E
:10016000FFF7C8FFD44C0008F44C000870B58C1899
:1001700010F8015B15F0070301D110F8013B2A11BB
:1001800006D110F8012B03E010F8016B01F8016BA8
:100190005B1EF9D12B0705D40023521E0DD401F8A4
:1001A000013BFAE710F8013BCB1A921C03E013F86D
:1001B000015B01F8015B521EF9D5A142D8D30020A2
:1001C00070BD0000FEE7000010B520281ED10868B1
:1001D00042F64862C2F200021160B8B18879A8B153
:1001E00040F67454C2F20004204604F027FC04F6E2
:1001F0002C0004F023FC41F25800204404F01EFCC3
:1002000040F27410C2F2000000210160002010BD15
:100210000020704710B542F2FC54C2F2000440F6D0
:100220008C11C2F200012046002202F0D7FE40F2FB
:10023000A451C2F20001204602F0CAFE002010BD07
:1002400070B542F2FC560546C2F200060C46304636
:10025000294602F0BDFE304602F09CFE40F6745086
:10026000C2F2000040682288294602F02FF80020E0
:1002700070BD000010B542F2FC52C2F20002D2F88A
:10028000B822D2F81432002B1CBF012010BD42F25C
:10029000FC54C2F200040A460146204602F09EFECB
:1002A000204602F01DFF10BDB0B50C46054600BF4C
:1002B00028462146FFF7DEFF0128F9D0B0BD000037
:1002C000B0B5F1B142F6586301EB4102C2F200034E
:1002D0001A4444F692350138033A4FF0200CC0F628
:1002E00000050C4682F802C0035D03F00F03EB5CCF
:1002F0005370035D013C4FEA1313EB5C02F80339C2
:10030000F0D142F6586501EB4104C2F2000500BF8E
:1003100028462146FFF7AEFF0128F9D0B0BD000006
:1003200080B542F65820C2F2000000F0D7F880BD38
:1003300080B542F61420C2F2000000F0CFF880BD74
:1003400080B542F64810C2F2000000F0C7F880BD48
:1003500080B542F60410C2F2000000F0BFF880BD84
:1003600080B542F68C10C2F2000000F0B7F880BDF4
:1003700080B542F6D010C2F2000000F0AFF880BDA8
:10038000B0B5D0E900CED0E90F40012505FA00F064
:1003900060600846CCF80430BEF1100F04BF104670
:1003A0000A46CCF80800CCF80C20B0BD704700001D
:1003B000EFF3108072B600BF4FF47A7000F044FB88
:1003C000FAE70000B0B54FF2E871C1F6FF710868B6
:1003D0008A68801808BFB0BD40F25815C2F2000507
:1003E0004C68A91C082201F0B7FF05F11201204654
:1003F000042201F0B1FFB0BD014690F821000228AF
:1004000013D10868D1E90FC3026822F00E0202601E
:10041000026822F001020260012000FA03F2CCF827
:10042000042081F82100002002E0042088630120DC
:10043000002281F82020704780B590F82110022911
:1004400023D10268116821F00E0111602F21136879
:10045000C4F202018A4240F20401C4F2020123F014
:100460000103136015DD3023C4F202039A421CD04D
:100470004423C4F202039A421AD05823C4F202035E
:100480009A421AD14FF480331FE004218163012086
:1004900080BD0823C4F202039A420CD01C23C4F28C
:1004A00002039A4209D110230FE04FF480730CE04D
:1004B0004FF4805309E0012307E001F1680C4FF08D
:1004C0008073624508BF4FF480130B60416B4FF49B
:1004D0008072028401B18847002080BD10B5016898
:1004E000D0E90FCEDCF800200B685C0727D5042488
:1004F00004FA0EF4144022D00A68920603D40A6863
:1005000022F004020A6002682F21C4F202018A422A
:1005100040F20401C4F2020158DD3023C4F20203A8
:100520009A426BD04423C4F202039A4269D0582302
:10053000C4F202039A4269D14FF480236EE09C0713
:100540002AD5022404FA0EF4144025D00A68920633
:1005500006D40A6822F00A020A60012180F82110FC
:1005600002682F21C4F202018A4240F20401C4F25F
:10057000020137DD3023C4F202039A4254D04423EF
:10058000C4F202039A4252D05823C4F202039A42A0
:1005900052D14FF4003357E01B0758BF10BD08235A
:1005A00003FA0EF31A4010D00A6822F00E020A6015
:1005B000012101FA0EF2CCF804208163016B4FF4A3
:1005C00080720029028418BF884710BD0823C4F236
:1005D00002039A4218D01C23C4F202039A4215D196
:1005E00040231BE00823C4F202039A4222D01C23BA
:1005F000C4F202039A421FD1202325E04FF4806306
:100600000CE04FF4804309E0042307E001F16804A3
:100610004FF08063A24208BF4FF480030B60C16AB1
:100620000029D2D0884710BD4FF400730CE04FF47E
:10063000005309E0022307E001F168044FF0007362
:10064000A24208BF4FF400130B60816A0022002908
:1006500080F82020B9D0884710BD0000002804BFD2
:10066000012070472DE9F04101684FF6F872CBF692
:10067000FD724CF6CD430A44CCF6CC43A2FB0323D7
:100680006FF0030707EA9303002700F1040E00F15F
:100690001008C4F202079EE8045098E87001C0E90F
:1006A0000F730B6843F6F077BB431A4342EA0C0220
:1006B00042EA0E0222432A43324342EA08020A6017
:1006C00000214FF4807281630284BDE8F041084646
:1006D000704700002DE9F04F81B0044690F82100EA
:1006E000022823D120680068800625D440F26C08D7
:1006F000206840F22F0916468A46C4F20208C4F266
:10070000020901B3484532DD3021C4F202018842BA
:1007100045D04421C4F20201884243D05821C4F29A
:100720000201884243D14FF4802555E00420A063A4
:10073000002084F8200002E04FF48070A0630120C4
:1007400001B0BDE8F08F48451DDD3021C4F2020143
:10075000884233D04421C4F20201884231D058216A
:10076000C4F20201884231D14FF4003534E008214F
:10077000C4F20201884218D01C21C4F2020188424E
:1007800015D1402528E00821C4F2020188421BD07F
:100790001C21C4F20201884218D120251CE04FF42C
:1007A000806519E04FF4804516E0042514E04FF011
:1007B0008065404508BF4FF480050DE04FF400759B
:1007C0000AE04FF4005507E0022505E04FF0007500
:1007D000404508BF4FF4001500F062FA58F86C1C51
:1007E00029421AD02068BAF1000F64D0484576DD5E
:1007F0003021C4F20201884200F099804421C4F201
:100800000201884200F096805821C4F20201884219
:1008100040F095804FF4802197E0074606F1010BE8
:1008200004E000BF58F86C0C2842DBD158F86C0C7F
:100830002168494512DD3022C4F20202914219D0EA
:100840004422C4F20202914217D05822C4F202029A
:10085000914217D14FF400211AE000BF0822C4F2E0
:10086000020291420CD01C22C4F20202914209D130
:1008700080210DE04FF400610AE04FF4004107E0F1
:10088000082105E041454FF0006108BF4FF4000129
:1008900001423CD1BBF1000FC4D026B100F000FAF8
:1008A000C01BB042BED9A06B40F02000A0634FF443
:1008B0008070208443E748451DDD3021C4F20201E9
:1008C000884245D04421C4F20201884243D05821D5
:1008D000C4F20201884243D14FF4003146E00821BE
:1008E000C4F20201884228D01C21C4F202018842CD
:1008F00025D1402129E00821C4F2020188422DD0EF
:100900001C21C4F2020188422AD120212EE0D4E920
:100910000F12012000FA02F24A60A16B41F00101BE
:10092000A1634FF48071218401B0BDE8F08F4FF4D2
:1009300080610AE04FF4804107E0042105E04FF0B8
:100940008061404508BF4FF4800148F8681C12E000
:100950004FF400710AE04FF4005107E0022105E076
:100960004FF00071404508BF4FF40011012048F8D6
:10097000681C84F82100002084F8200001B0BDE844
:10098000F08F0000B0B5044690F82000012820D078
:1009900094F821000125012884F8205016D1022066
:1009A000002584F82100A563D4F800C0DCF800001D
:1009B00020F00100CCF800002046FFF7E1FC2068A1
:1009C000016841F0010101602846B0BD002084F8B3
:1009D00020000220B0BD000010B5044690F82000B1
:1009E000012821D094F821004FF0010C012884F84F
:1009F00020C016D1022084F821000020A063D4F882
:100A000000C0DCF8000020F00100CCF80000204617
:100A1000FFF7B6FC2068E26A01683AB141F00E01C6
:100A20000AE0002084F82000022010BD21F004011B
:100A30000160016841F00A0101602068016841F02D
:100A400001010160002010BDB0B5044600F028F996
:100A5000054640F27810C2F200000078611C18BF11
:100A6000044400BF00F01CF9401BA042FAD3B0BD03
:100A70002DE9F04F84B00E680290002E00F0018145
:100A800040F2004741F2004202984FF6FF7EC4F266
:100A90000107C4F20102042300240125C1F2100E53
:100AA0004FF0000A4FF00009904208BF0323009363
:100AB0000AE000BF01250E680AF1010A36FA0AF2BF
:100AC00004F1040400F0DD8005FA0AFB16EA0B08C5
:100AD000F1D04A68724511DC122A54D80298DFE836
:100AE00002F0350A4347535353535353535353530D
:100AF0005353534A4E00D1F80C9045E04FF6FF7324
:100B0000C1F221039A4210DC0023C1F211030298C2
:100B10009A421BD00023C1F212039A4216D000233E
:100B2000C1F221039A4211D02EE00023C1F2220328
:100B300002989A420AD00023C1F231039A4205D0AA
:100B40000023C1F232039A421ED100BF8A6842B12B
:100B5000012A14BFC0F814B0C0F810B04FF0080953
:100B600012E04FF004090FE0CA6802F108090BE037
:100B70004FF0000908E0CA6802F1040904E0CA68FD
:100B800002F10C0900E0029822460346B8F5807F86
:100B900024BF203A04331D684FF00F0C0CFA02F604
:100BA000B54309FA02F22A431A60CA79D2067FF5E0
:100BB00081AF41F21803CDF80490C4F202031A6821
:100BC000F34642F001021A601A684FEA9A0E02F0E8
:100BD00001020392039AA7F57E72B94652F82E30AD
:100BE00004F00C0740F600060CFA07F5C4F2010603
:100BF000B04223EA050C10D040F60043C4F20103D2
:100C000098420CD041F20003C4F201039842009BC9
:100C10004FF0010508BF022303E0002300E0012399
:100C20000125BB4043EA0C0342F82E304E684F4684
:100C3000F203D9F8002054BF22EA080242EA08026F
:100C4000DDF804903A607A68B30354BF22EA0802E0
:100C500042EA08027A60F302BA6854BF22EA080244
:100C600042EA0802B30240F20C43BA60C4F2010344
:100C7000DE461A6854BF22EA080242EA08021A60F5
:100C800019E704B0BDE8F08F8068084018BF012064
:100C900070470000002A08BF090401617047000086
:100CA00043F25820C2F200000068704740F278100A
:100CB00043F25821C2F20000C2F2000100780A6833
:100CC000104408607047000080B542F20000C4F292
:100CD0000200016841F010010160032000F066F895
:100CE000002000F005F800F02BF8002080BD000087
:100CF000B0B540F27812C2F2000240F21C01127844
:100D0000C2F200014FF47A730968B3FBF2F20446B1
:100D1000B1FBF2F1084600F0F5FF0F2C4FF0010592
:100D20000CD858B94FF0FF3021460022002500F0C2
:100D30002DF840F27C10C2F2000004602846B0BDDD
:100D400082B041F21800C4F202000168022241F0B0
:100D500001010160016801F00101019101994168FF
:100D600041F080514160406800F080500090009850
:100D70000420C4F20100016862F31A61016002B04C
:100D80007047000080B503F0C3FC80BD70B5144609
:100D90000D46064603F0CCFC2946224601F04CFCE9
:100DA0000146304603F0CCFC70BD000080B503F076
:100DB000D9FC80BD80B501F0070C0CEB8C0C00EB6E
:100DC000CC0C0CF1280C01EB810E090600EBCE00D7
:100DD00058BF00F5B47C4AB101208CF80C00180C07
:100DE000ACF80A000020ACF8083080BD00208CF878
:100DF0000C000020ACF8063080BD000070470000F9
:100E000080B501EB8102D0F8E83200EBC200C26B82
:100E1000184602F071FB80BD80B501EB8102D0F86D
:100E2000E83200EBC200D0F87C21184602F0C6FB85
:100E300080BD000010B50446080601F0070000EB75
:100E4000800104EBC10205D402F5B471002382F8DD
:100E5000693104E0012302F1280182F8293094F875
:100E6000A8220870012A04BF022010BD20680122B8
:100E700084F8A82202F0D0FF002084F8A80210BD58
:100E8000B0B50446406801F00F02824284BF0120E1
:100E9000B0BD080601F0070000EB800104EBC102C1
:100EA00005D402F5B471002382F8693104E001230E
:100EB00002F1280182F8293094F8A8220025012A9D
:100EC0008D70087004BF0220B0BD2068012284F834
:100ED000A82203F041F8284684F8A852B0BD0000CB
:100EE000B0B500685304B0F8504091F800E048F203
:100EF000C00C04EBCE0400EB440316D4B3F80C444E
:100F00008B696FF39F241B1B38BF00238B611AD999
:100F1000520624D430F82E2040F60F731A4042EACD
:100F20000C0220F82E20DCB93BE0B3F804448B69B6
:100F30006FF39F241B1B38BF00238B6113D952060C
:100F40001DD434BB2DE030F82E3043F60F752B4006
:100F50000CF5FE556B4020F82E305206DAD504B35E
:100F60004B694A8917E030F82E3043F60F752B4055
:100F70000CF5FE556B4020F82E305206E1D530F8C6
:100F80002E2040F60F731A4042EA0C0220F82E2061
:100F90003CB14B690A891946234603F06DFB204694
:100FA000B0BD2046B0BD0000F0B581B00446006879
:100FB00016460D46B0F850200978730602EBC102C0
:100FC00000EB42022FD4B2F80C24AB696FF39F22DE
:100FD0009B1A38BF0023AB6154D9730409D430F88D
:100FE000213040F60F773B404CF280073B4320F81E
:100FF000213095F82430012B40F0F180D5E904E749
:10100000D5E9076307EB020C16447345C5F814C015
:10101000EE615DD2002B00F0848000229E462A62A1
:1010200085F8242081E0B2F80424AB696FF39F2295
:101030009B1A38BF0023AB6137D9730409D530F848
:10104000213040F60F7633404CF28006334320F8CF
:10105000213095F82430012B40F0C180D5E90436C9
:10106000D5E9077E06EB020CBE189E45C5F814C0F4
:10107000EE6131D20026BEF1000F85F824602ED13A
:1010800096462DE02046FFF7BBFE700400F1A780D6
:101090002068297840F60F7330F821201A404CF26E
:1010A00080031A4320F8212099E02046FFF7A8FE8C
:1010B000700440F194802068297840F60F7330F86E
:1010C00021201A404CF280031A4320F8212086E0A8
:1010D000A3EB0E022A6228E0AEEB03069E462E62C8
:1010E0006A78012A14D0002A5ED109010431B0F8CF
:1010F00050200144BEF1000F01F5806136D0BEF1F1
:101100003E0F43D80EF0010303EB5E039B024AE05F
:101110000901B0F85020043101441144A1F800E461
:1011200042E0002385F8243096466A78012A14D0DC
:10113000002A4ED109010C31B0F850200144BEF113
:10114000000F01F5806119D0BEF13E0F33D80EF0CB
:10115000010303EB5E039B023AE00901B0F8502063
:101160000C3101441144A1F800E432E0535A23F455
:10117000F8435352535A43F4004314E0535A23F4B0
:10118000F8435352535A43F4004321E04FEA5E13AD
:101190004FF0FF365FEACE6708BF06EB5E134FF4F1
:1011A000004646EA832353522A891FFA8EF361468A
:1011B00003F086FA13E04FEA5E134FF0FF365FEA62
:1011C000CE6708BF06EB5E134FF4004646EA832362
:1011D00053526A891FFA8EF3614603F071FA206850
:1011E000297840F63F7330F821201A4048F2B003C6
:1011F0005A4020F8212001B0F0BD000001F00701A5
:1012000001EB810100EBC100D0F8840170470000C0
:10121000B0B50546080601F0070000EB800105EBBC
:10122000C10C05D40CF5B47100248CF8694104E0BC
:1012300001240CF128018CF829404C780870002C0E
:101240000A61CB7018BFC881022B04BF002008714F
:1012500095F8A802012804BF0220B0BD2868012229
:1012600085F8A82202F0ACFC002085F8A802B0BDE9
:1012700010B501F0070C0CEB8C0100EBC10E0068FF
:101280000EF5B4710024CEF87C21CEF88031CEF872
:1012900084418EF869418EF868C102F0B7FE0020E3
:1012A00010BD0000B0B50446406801F00705854256
:1012B00084BF0120B0BD080609D401EB810004EB16
:1012C000C00000F5B471002280F8692108E005EB48
:1012D000850004EBC000012200F1280180F82920DC
:1012E00094F8A802012201288A700D7004BF022020
:1012F000B0BD206884F8A82202F06EFE25B92068EF
:1013000004F52C7102F026FE002084F8A802B0BD7E
:1013100080B501F0070C0CEB8C0100EBC10101F86A
:1013200028CF4FF0010C01F1140781F824C04FF0D1
:10133000000E87E80C4000680B6281F801C002F0E3
:1013400065FE002080BD0000B0B584B00546006891
:1013500003F08EF9000402D5284601F083F92868CD
:1013600003F086F940050DD52868B0F8441021F443
:101370008061A0F84410284600F03CF9284600217E
:1013800000F056F9286803F073F9400406D5286880
:10139000B0F8441021F48041A0F84410286803F00C
:1013A00067F9800406D52868B0F8441021F400518C
:1013B000A0F84410286803F05BF9C00416D528682B
:1013C000B0F8401021F00401A0F84010B0F840102F
:1013D00021F00801A0F84010284600F01DF9286807
:1013E000B0F8441021F48051A0F84410286803F0AC
:1013F0003FF9000542D528686FF00102011F6846D9
:1014000031F8043F841802320E2A6380F8D129682B
:10141000B1F8402042F00102A1F84020B1F840208C
:1014200022F00102A1F84020B1F844205205FBD57A
:10143000B1F844206FF0010322F48062A1F8442047
:101440000A1F00BFC418648802330E2B22F8044F11
:10145000F8D1B1F8400040F00800A1F84000B1F820
:10146000440020F40060A1F84400B1F8400040F0CE
:101470000400A1F84000284600F012F9286803F0A3
:10148000F7F8800509D52868B0F8441021F40071F8
:10149000A0F84410284600F0C5F8286803F0E8F8E2
:1014A000C00506D52868B0F8441021F48071A0F872
:1014B000441004B0B0BD0000F0B585B0F8B10446EA
:1014C00090F8A90228B9002084F8A802204600F06C
:1014D0006FF8032084F8A902206802F031FD94E837
:1014E0002F50D4E907678DE82050CDE9036702F05B
:1014F00091FC30B1022084F8A902012554E00125B5
:1015000052E020680021002503F0D0F86168B1B1F5
:10151000616801200023002203EB830304EBC3076F
:1015200087F82820D3B20132FB86D3B2994287F8DC
:10153000290087F82B50C7E90E553D64ECD8A9B1B6
:1015400000200023002200BF03EB830304EBC3074A
:1015500087F868210132D3B2994287F8690187F888
:101560006B01C7E95E00C7F88001EDD804F10807F8
:10157000D4E9056520688CCFD4E907CECDE90076A3
:1015800002AE86E8205002F0CDFC20B1022084F8A3
:10159000A902012508E00025012084F8245084F8E0
:1015A000A902206802F0BCFC284605B0F0BD00008E
:1015B00080B582B0006845F60041C4F2000188425F
:1015C00001D002B080BD41F21C00C4F202000168EB
:1015D000002241F4000101600068002100F40000D5
:1015E000019001981420FFF7D1FB1420FFF7CAFBEC
:1015F00002B080BD10B504468068022818BFFEF70F
:10160000D7FED4F8E802012102F0CCF8D4F8E802C1
:1016100002F086F810BD000080B5D0F8E80202F0B4
:10162000A9F880BD80B5D0F8E80202F0ADF880BD21
:1016300010B5044690F8A802012804BF022010BD8E
:10164000012084F8A80284F82410206803F030F800
:10165000002084F8A80210BD80B5D0F8E82200F57B
:101660002C71104602F0AAF880BD000010B50446A7
:1016700090F8A802012804BF022010BD20680121B3
:1016800084F8A81202F0E2FF20460121FFF7B6FB22
:10169000206802F043FC002084F8A80210BD00007E
:1016A00010B50446D0F8E80202F0C8F8A069002896
:1016B00008BF10BD4EF61050CEF20000016841F098
:1016C0000601016010BD00002DE9F04182B0044622
:1016D000007841F21C06C007C4F202064AD0306806
:1016E00010F0805808D1306840F080503060306889
:1016F00000F080500190019847F20007C4F2000703
:101700003868C00512D4386840F480703860FFF73C
:10171000C7FA05463868C00508D4FFF7C1FA401B70
:101720006428F7D9032002B0BDE8F081706810F496
:10173000407012D0616801F4407188420DD0706829
:1017400040F24042C4F24222012320F4407113606F
:101750000023C0071360716029D17068616820F4AC
:1017600040700843B8F1000F706003D1306820F07A
:10177000805030602068810707D556F8181CA26891
:1017800021F44041114346F8181CC00603D4002040
:1017900002B0BDE8F08156F8180CE16820F4800032
:1017A000084346F8180C002002B0BDE8F081FFF7AE
:1017B00077FA054641F2883770688007CDD4FFF785
:1017C0006FFA401BB8424FF00300F5D9ECE7000078
:1017D0002DE9F04381B0002800F0898042F2000832
:1017E000C4F202080446D8F800000D4600F00700D5
:1017F00088420CD2D8F8000020F007002843C8F82F
:101800000000D8F8000000F00700A8426FD120685F
:1018100041F204098107C4F2020917D5410705D531
:10182000D9F8001041F4E061C9F80010010705D5AE
:10183000D9F8001041F46051C9F80010D9F800102F
:10184000A26821F0F0011143C9F80010C00745D18A
:10185000D8F8000000F00700A8420CD9D8F8000022
:1018600020F007002843C8F80000D8F8000000F076
:101870000700A8423BD12068410707D5D9F80010DE
:10188000E26821F4E0611143C9F80010000708D5AF
:10189000D9F80000216920F4605040EAC100C9F87D
:1018A000000000F079F8D9F8001044F67A32C1F35C
:1018B0000311C0F60002515C40F21C0220FA01F153
:1018C00040F27C10C2F200000068C2F20002116017
:1018D000FFF70EFA002001B0BDE8F083606802282F
:1018E00009D0012829D159F8041C890307D4012003
:1018F00001B0BDE8F08359F8041C8901F7D5D9F887
:10190000001021F003010843C9F80000FFF7C8F9EF
:10191000064641F2883700BFD9F80000616800F040
:101920000C00B0EB810F93D0FFF7BAF9801BB842DF
:10193000F2D9032001B0BDE8F08359F8041C8907EF
:10194000D5D5DCE740F21C00C2F200000068704709
:1019500080B5FFF7F7FF41F20401C4F20201096804
:1019600044F68A32C1F30221C0F60002515CC8403D
:1019700080BD000080B5FFF7E5FF41F20401C4F22D
:101980000201096844F68A32C1F3C221C0F600029E
:10199000515CC84080BD000041F2040CC4F2020C4E
:1019A000DCF8003003F00C00082841F20020C0F2FF
:1019B0007A0018BF7047C3F383420AA18A5CD90337
:1019C00005D440F60010C0F23D0050437047DCF8EB
:1019D000001008A3C1F34041595C5043B0FBF1F043
:1019E000704700BF02030405060708090A0B0C0D27
:1019F0000E0F1010010200002DE9F04182B0002806
:101A000000F0C4800446007841F20006C007C4F22A
:101A1000020643D0706800F00C00042817D07068EC
:101A200000F00C00082802D17068C0030FD465686C
:101A30002DB1B5F5A02F10D0B5F5803F11D030688D
:101A400020F480303060306820F480200CE0306872
:101A5000800323D5606808BB98E0306840F480209C
:101A60003060306840F480303060FFF719F9002DA5
:101A7000054610D03068800310D4FFF711F9401BE1
:101A80006428F7D904E100BFFFF70AF9401B642876
:101A90004FF0030077D830688003F5D420788007B2
:101AA00018D5706810F00C0F07D0706800F00C00AB
:101AB000082826D17068C00323D43068800702D577
:101AC0002069012862D13068616920F0F80040EA9D
:101AD000C1003060207800073DD5A06938B30020F0
:101AE000C4F242200121C0F88014FFF7D9F805465E
:101AF000706A80072DD4FFF7D3F8401B0228F7D96E
:101B0000C6E02069002840F20000C4F2422000F044
:101B1000968001210160FFF7C3F805463068800711
:101B2000D1D4FFF7BDF8401B0228F7D9B0E0002060
:101B3000C4F242200021C0F88014FFF7B1F8054636
:101B4000706A800707D5FFF7ABF8401B0228F7D96A
:101B50009EE000F00FFF207840071BD4E5698DB1AF
:101B6000706800F00C00082847D1012D0ED0706875
:101B7000216A00F480328A4208D1616A00F4701050
:101B8000884203D1002002B0BDE8F081012002B0FC
:101B9000BDE8F081F06910F0805808D1F06940F09C
:101BA0008050F061F06900F080500190019847F298
:101BB0000007C4F200073868C00510D4386840F444
:101BC00080703860FFF76CF8054600BF3868C005C4
:101BD00005D4FFF765F8401B6428F7D958E0E5689D
:101BE0001DB1052D3CD0012D3ED0306A20F0010002
:101BF0003062306A20F0040039E00027C4F2422746
:101C000000203866FFF74CF8022D05460CD100BFC6
:101C10003068800154D5FFF743F8401B02284FF08D
:101C20000300F5D9AFE700BF30688001AAD5FFF700
:101C300037F8401B02284FF00300F5D9A3E7002135
:101C40000160FFF72DF80546306880077FF542AF49
:101C5000FFF726F8401B02284FF00300F4D992E763
:101C6000306A40F004003062306A40F001003062B7
:101C7000FFF716F8002D054641F2883714D000BF53
:101C8000306A800713D4FFF70BF8401BB842F7D92E
:101C9000032002B0BDE8F081FFF702F8401BB84214
:101CA0004FF003003FF66FAF306A8007F4D4B8F10D
:101CB000000F7FF453AFF06920F08050F0614DE7E2
:101CC000206AB0F5803F05D17168A26821F4003127
:101CD000114371607168626A21F474111043084302
:101CE000706001203866FEF7DBFF04463068800133
:101CF0003FF548AFFEF7D4FF001B02284FF003006A
:101D0000F4D940E780B500F04DFE80BD10B5044623
:101D10000068416994F83920212A0ED111F0800120
:101D20000BD0416921F080014161206B002818BF70
:101D3000FEF762FB204600F01DFF2068416994F821
:101D40003A20222A0ED111F040010BD0416921F036
:101D500040014161606B002818BFFEF74DFB204633
:101D600000F0EEFE002010BDB0B5044602F00AFD02
:101D700005462046FFF7CAFF05F1140120464FF43F
:101D8000806200F025FAB0BD10B502680446106804
:101D9000D168536900F02F02202A01F0200204D1FB
:101DA0001AB1204600F0F0FE10BD5FEA007C1EBFB5
:101DB00003F0010E01F4907313EB0E030DD10840F4
:101DC000010606D4400658BF10BD204600F0C6FEEE
:101DD00010BD204600F060FF10BDC30718BF11F40E
:101DE000807302D1430706D40CE0E36B43F0010398
:101DF000E363430706D5BEF1000F03D0E36B43F066
:101E00000203E363830706D5BEF1000F03D0E36B43
:101E100043F00403E363BCF1000F06D552EA0E025F
:101E200003D0E26B42F00802E263E26B002ACFD0FB
:101E30000840800602D5204600F0A6FE20684069D2
:101E4000E16B00F0400001F0080140181DD0204671
:101E500000F076FE20684169490612D5416921F0FB
:101E600040014161606B60B142F66921C0F600013A
:101E70004163FEF7E1FA0028AAD0606B416B884706
:101E800010BD2046FFF770FF10BD2046FFF76CFF26
:101E90000020E06310BD0000002804BF012070474F
:101EA00010B5044690F8390028B9002084F83800AD
:101EB000204600F021F8242084F839002068C16809
:101EC00021F40051C160204600F09EFE20680169A7
:101ED00021F490410161416921F02A014161C16809
:101EE00041F40051C16000202021E06384F83910E2
:101EF00084F83A1010BD00002DE9F04186B00027AB
:101F00000597CDE903770446006844F20041C4F226
:101F100000018842029778D044F60001C4F2000123
:101F2000884200F0D98043F60001C4F201018842E2
:101F300040F04B8141F21800C4F20200016840F603
:101F4000000541F4804101600168C4F2010501F41B
:101F5000804101910199016802AE41F004010160E4
:101F6000006840F21C0800F00400019001984FF452
:101F7000007002900220039003200590284631460D
:101F8000C4F20208FEF774FD4FF48060029000274F
:101F900028463146CDE90377FEF76AFD42F604157F
:101FA00008F13C00C2F20005802620214FF40052C7
:101FB000C5E900072846C5E90276C5E90477C5E901
:101FC0000612FEF74BFB002818BFFEF7F1F9656318
:101FD0006C6242F6481508F12800C2F20005102193
:101FE00085E883002846C5E90367C5E90577EF6101
:101FF000FEF734FB002800F0D980FEF7D9F942F64D
:1020000048152526C2F20005D5E041F21800C4F2B9
:102010000200416840F6000541F40031416041682A
:10202000C4F2010501F4003101910199016802AE89
:1020300041F004010160006840F21C0800F0040057
:102040000190019804200290022003900320059043
:1020500028463146C4F20208FEF70AFD0820CDE901
:102060000207284631460497FEF702FD42F68C151A
:1020700008F15000C2F20005802620214FF40052E2
:10208000C5E900072846C5E90276C5E90477C5E930
:102090000612FEF7E3FA002818BFFEF789F9656318
:1020A0006C6242F6D01508F16400C2F200051021FE
:1020B000002285E847002846C5E90422C5E9062232
:1020C000FEF7CCFA002873D0FEF772F942F6D0156D
:1020D0002626C2F200056EE041F21800C4F20200AA
:1020E000416802AE41F480214160416840F21C0821
:1020F00001F48021019101990168C4F2020841F0C4
:10210000080101600068314600F008000190019864
:102110004FF480600290022003900320059040F667
:102120000000C4F2010000F580652846FEF7A0FC1F
:102130004FF400600290002728463146CDE903772E
:10214000FEF796FC42F6142508F11400C2F20005D1
:10215000802620214FF40052C5E900072846C5E932
:102160000276C5E90477C5E90612FEF777FA00287A
:1021700018BFFEF71DF965636C6242F65825C2F27E
:1021800000051020C5E900802846C5E90276C5E9AA
:102190000477C5E90677FEF761FA58B1FEF708F94A
:1021A00042F658252726C2F2000504E0252602E063
:1021B000262600E0272630460021002225636C6297
:1021C000FEF7E4FD3046FEF7DDFD06B0BDE8F08128
:1021D00070B582B0054690F83A00202809D1134620
:1021E0000A4641B14BB195F83800012807D10224C5
:1021F00039E0022437E0012435E0012433E00120F6
:1022000085F8380000242220AA62AB85EC6385F8AB
:102210003A002968686B42F6C52C42F6FD2E42F65C
:102220007926C0F6000CC0F6000EC0F60006043198
:10223000C0E90ACEC0E90C64FEF7CEFB0194286821
:102240000168019141680191019985F83840C168A0
:1022500041F48071C160416941F00101416141690E
:1022600041F040014161204602B070BD80B502F0EE
:1022700089FAD0F8201801291CBF0121C0F82018C4
:10228000D0F82418002908BF80BD4FF40071C0F8B1
:1022900018180021C0F8201880BD000080B502F099
:1022A00071FAD0F8201800291CBF0021C0F82018AE
:1022B000D0F82418012908BF80BD4FF40071C0F880
:1022C00014180121C0F8201880BD000070B5054623
:1022D00090F8390020281CBF022070BD99B3134626
:1022E0008AB395F83800012804BF022070BD012090
:1022F00085F83800002421202962AB84EB84EC634C
:1023000085F839002A68286B42F6093C42F6353ECA
:1023100042F67926C0F6000CC0F6000EC0F60006A4
:102320000432C0E90ACEC0E90C64FEF755FB286808
:102330006FF04001016085F83840416941F080014B
:102340004161204670BD012070BD00007047000053
:1023500070470000FEE7000010B5002A08BF10BD5E
:1023600002394FF0370C4FF0000E00BF0CEB107429
:10237000B0F1204F4FEA107338BF03F1300401F879
:10238000024F0001013A81F801E0EFD110BD0000D9
:1023900010B582B041F21400C4F20200016840F2AC
:1023A000080E41F0010101600068C4F2020E00F065
:1023B00001000190019842F6C000C2F200004FF403
:1023C000804240234FF0800C00214FF48054C0E93C
:1023D00000E2C0E9023CC0E90411C0E90614FEF7BE
:1023E0003DF988BB0C2000210022FEF7CFFC0C2019
:1023F000FEF7C8FC0D2000210022FEF7C7FC0D20CF
:10240000FEF7C0FC0E2000210022FEF7BFFC0E20CC
:10241000FEF7B8FC0F2000210022FEF7B7FC0F20CA
:10242000FEF7B0FC102000210022FEF7AFFC1020C8
:10243000FEF7A8FC112000210022FEF7A7FC1120C6
:10244000FEF7A0FC02B010BDFDF7B2FF2DE9F0478A
:1024500086B04FF0000941F21800CDE90499CDE9AA
:102460000299C4F20200016840F6004A41F01001EE
:1024700001600168C4F2010A01F0100101910199A3
:1024800001680AF5806541F02001016001680022C1
:1024900001F020010191019901684FF4005641F0CB
:1024A00004010160016801F00401019101990168D2
:1024B00041F00801016000684FF4005100F008008D
:1024C000019001982846FEF7E5FB50468021002246
:1024D0004FF08008FEF7DEFB029602AE01270224D1
:1024E00028463146CDE903770594FEF7C1FA5046F8
:1024F0003146CDE90287CDE90444FEF7B9FA4FF43D
:102500004070CDE90209504631460497FEF7B0FA13
:1025100006B0BDE8F087000080B542F6885043F66B
:102520000001C2F20000C4F2010100234FF00C0CC4
:102530004FF4E13280E80E00C0E90333C0E905C37F
:10254000C361FFF7A9FC002808BF80BDFDF730FF7D
:1025500080B542F6C85044F20041C2F20000C4F215
:10256000000100234FF00C0C4FF4E13280E80E0024
:10257000C0E90333C0E905C3C361FFF78DFC002840
:1025800008BF80BDFDF714FF80B542F6086044F631
:102590000001C2F20000C4F2000100234FF00C0C55
:1025A0004FF4E13280E80E00C0E90333C0E905C30F
:1025B000C361FFF771FC002808BF80BDFDF7F8FE7E
:1025C00080B542F2FC5040F20001C2F20000C2F2BB
:1025D0000001002200F068FF002818BFFDF7E8FEA8
:1025E00042F2FC5040F22001C2F20000C2F20001AF
:1025F00001F042F9002818BFFDF7DAFE42F2FC5064
:1026000040F24411C2F20000C2F2000100F0D8FC16
:10261000002818BFFDF7CCFE42F2FC50C2F20000C9
:1026200001F0B4F9002818BFFDF7C2FE80BD00001C
:10263000FEE70000FEE7000000F0070080F007035F
:10264000042B28BF04234FF0FF3C03380CFA03F39C
:1026500038BF0020994381400CFA00F022EA0000C4
:10266000084370472DE9F04F81B004460068B0F987
:102670004410B1F1FF3F02DD01B0BDE8F08F4FF033
:10268000FF3904F52C7140F60F7B009121E0B0F882
:10269000501094F86821236801EBC20103EB41015B
:1026A000B1F80C34B4F86E2100996FF39F23C4F88D
:1026B000843101F0E1FF2068018801EA0B018031DB
:1026C00001802046FEF7C8FF2068B0F94410494554
:1026D000D2DCB0F8442012F00F0823D030F8286084
:1026E0004FEA480A310440F1E18030F81A1001EA5B
:1026F0000B01803120F81A1008EB880104EBC109A6
:1027000099F8741109F5B47700297AD099F86B110A
:10271000022940F08780204639463246FEF7E0FB2A
:102720000546A9E00188D2062CD401EA0B0101F587
:1027300000410180B0F8500094F82810226800EBA6
:10274000C10002EB4000B0F80404E16B6FF39F207E
:1027500060640844E06320460021FEF751FB94F8D2
:1027600024000028B0D0206C0028ADD194F82400BB
:10277000216840F08000C0B2A1F84C00002084F82D
:102780002400A1E70A053FF582AF09049CD5018822
:1027900001EA0B0180310180B0F8501094F86821F3
:1027A000236801EBC20103EB4101B1F80C346FF374
:1027B0009F23C4F884318BB1D4F87C1171B1B4F883
:1027C0006E2101F059FFD4F87C01D4F8841108443B
:1027D000C4F87C0120460021FEF71EFB2068D4F8D7
:1027E0007831B0F85010002B00F20C4200F09D80C0
:1027F0003E2B00F2A58003F0010707EB53039B0279
:10280000A9E0B0F850103A7801EBC20100EB4101A9
:10281000B1F80C546FF39F2575B3D9F87C11B9F852
:102820006E2126E0397848F2C00330F8212002EA10
:102830000B021A4320F8212030F82120B0F8503044
:10284000520403EBC10100EB410109D4B1F80C546F
:102850006FF39F2585B1D9F87C11B9F8722108E092
:10286000B1F804546FF39F2535B1D9F87C11B9F84C
:1028700070212B4601F000FFD9F88411D9E95F02DD
:1028800029442844C9F88411C9F87C011AB1D9F83F
:102890007801A84204D939782046FEF7BDFA03E052
:1028A0002068394601F0B2FB4FF0FF3930067FF562
:1028B0000BAF206808EB880130F81A2004EBC10345
:1028C00002EA0B0203F1280102F50042F70520F8A5
:1028D0001A2008D593F82B20022A04D1204632462C
:1028E000FEF762FBF0E6B0F850700A78266807EB56
:1028F000C20706EB4707B7F804741E6C6FF39F27F7
:10290000F61B4FF0000538BF2E461E6408D9DA6B5F
:102910005E6C3A44DA63F2195A6401F077FBD3E64D
:1029200020461146FEF76CFACEE68B5A48F20007B5
:1029300023F4F8438B528B5ACFF6FF773B430AE0E0
:102940005F09DE0608BF09EB531748F20003CFF614
:10295000FF7343EA87238B52018843F60F721140BD
:1029600048F2C00202F53F5251400180ACE600003F
:102970007047000081B040F21C00C2F20000006805
:1029800044F6D351C1F26201A0FB0101480A009054
:1029900000BF0098411E00280091F9D101B0704796
:1029A00070470000B0B501380024B4EB106F1CBFB5
:1029B0000120B0BD4EF21005CEF2000568604FF068
:1029C000FF300F2101F0BCFE0720AC6028602046DC
:1029D000B0BD000080B5FEF769F942F65460C2F25E
:1029E000000001680131016080BD000070B594B045
:1029F0000AAC20462821FDF79CFB002501204FF45E
:102A000080310A90CDE90B150E9002264FF4E010AC
:102A1000CDE91161139020460995CDE90755CDE91F
:102A20000555CDE90355CDE90155FEF7E5FFB8B9E8
:102A30000F20CDE905064FF480600795CDE9080524
:102A400005A80221FEF7C4FE50B910200190002015
:102A5000049001A8FEF738FE002804BF14B070BD32
:102A6000FDF7A6FC7047000080B5406A0021C185D3
:102A7000C184FFF779F980BD10B5446A20684069C8
:102A800094F83910212907D110F0800004D00020DB
:102A9000E084204600F06EF82068406994F83A100F
:102AA000222907D110F0400004D00020E085204604
:102AB00000F046F8E06B40F01000E0632046FFF7BE
:102AC00053F910BD80B50168406A0968890611D4C0
:102AD0000021C1850168CA6822F48072CA604A690F
:102AE00022F001024A614A6922F040024A61202133
:102AF00080F83A10FFF7BAFB80BD000080B5406A4D
:102B0000FFF7CCFB80BD000080B50168406A096812
:102B100089060BD40021C1840068416921F080013D
:102B20004161C16841F04001C16080BDFFF70EFC0A
:102B300080BD000080B5406AFFF70AFC80BD000040
:102B40000168CA6822F49072CA604A6922F00102E0
:102B50004A61202180F83A107047000080B5016872
:102B6000CA6822F04002CA60202180F83910FFF7BD
:102B7000EDFB80BD0168CA6822F0C002CA60202156
:102B800080F839107047000080B590F83A1022297B
:102B900038D18268B2F5805F01D1016981B1816A63
:102BA000B2F5805F07D00AB9026922B102685268A3
:102BB00002F07F0201E0026852680A70012106E01B
:102BC0000168826A49686FF35F2111800221826A7D
:102BD00011448162C18D01390A04C18518BF80BDCD
:102BE0000168CA6822F02002CA60CA6822F48072B2
:102BF000CA604A6922F001024A61202180F83A1035
:102C0000FFF734FB80BD000010B504460068D4E92E
:102C100002C22369016921F44051114301616169D4
:102C200043EA0C021143C26841F20C639A43114318
:102C3000C1604169A26921F44071114343F6000269
:102C4000C4F201029042416102D0FEF781FE01E030
:102C5000FEF790FE6268192148439100B0FBF1F045
:102C600048F21F51C5F2EB11A0FB01235A096FF086
:102C7000630302FB0300322303EB0010A0FB0101FE
:102C8000F02303EA5113206803EB0212C1F343114E
:102C90001144816010BD000090F83910212923D122
:102CA0008168B1F5805F01D1016931B1016A0268C3
:102CB0004B1C03620978516007E0016A036831F830
:102CC000022B6FF35F225A600162C18C01390A0442
:102CD000C18418BF70470068C16821F08001C160DD
:102CE000C16841F04001C1607047000010B582B07A
:102CF00042F65060C2F200000121016042F65460C9
:102D000042F68854C2F20000C2F20004016020467C
:102D1000FFF73AF820680168C9060CD50021019137
:102D20000168019140680190019840F67450C2F228
:102D3000000001F0CDFE02B010BD000010B582B061
:102D400042F65060C2F200000121016042F6546078
:102D500042F6C854C2F20000C2F2000401602046EC
:102D6000FFF712F820680168C9060ED5002101910D
:102D70000168019140680190019840F67450C2F2D8
:102D8000000000F62C0001F0A3FE02B010BD000010
:102D900010B582B042F65060C2F20000012101601D
:102DA00042F6546042F60864C2F20000C2F2000427
:102DB00001602046FEF7E8FF20680168C9060FD5CC
:102DC0000021019101680191406841F25801019090
:102DD000019840F67450C2F20000084401F078FEF9
:102DE00002B010BD10B5D0F8B822C2B101EB81031A
:102DF00000EB830E5EF81C4F64B1D0F8C0C201EB4B
:102E000081030CEBC303D3F838C0B4FBFCF303FB22
:102E10001C4333B100242046C2F8144210BD0220E6
:102E200010BD002400220023CEF8004000F010FD69
:102E3000204610BDB0B5D0F8B852044600F002FCF0
:102E4000D4F8B812C5F80C0249B1D4F8BC0205F5A3
:102E50000371C268D5F8040290470020B0BD02207B
:102E6000B0BD0000B0B58121044600F03DFB002557
:102E700020460121E56200F037FB20468221C4F89C
:102E80006C5100F031FBD4F8B802256448B1D4F895
:102E9000BC0240688047D4F8B80200F089FEC4F84C
:102EA000B8520020B0BD000010B5D0F8BC1269B116
:102EB000D0F8B84294F80002FF2807D08B6894F845
:102EC000012221469847FF2084F80002002010BD0F
:102ED000014640F2E0000A22C2F200000A80704778
:102EE000014640F258004322C2F200000A807047B7
:102EF000014640F29C004322C2F200000A80704763
:102F0000014640F2EC004322C2F200000A80704702
:102F1000F0B581B00546007C4027002808BF4FF47B
:102F200000772846812102223B46402400F0E4FB42
:102F300001262846012102223B46EE6200F0DCFB1E
:102F40002846822103220823C5F86C6100F0D4FBD7
:102F50004FF407702E6400F02DFEC5F8B802A8B13A
:102F60000746D5F8BC02006880470026C7F81462FF
:102F7000C7F81862287CD7F80422002808BF4FF44D
:102F8000007428460121234600F0C2FB304601B000
:102F9000F0BD000080B5D0F8B81271B190F810C043
:102FA000D1F8042240230121BCF1000F08BF4FF4E7
:102FB000007300F0ADFB002080BD022080BD00004A
:102FC00000290EBF0220C0F8BC120020704700008C
:102FD000D0F8B8220020C2F804127047D0F8B832F6
:102FE0000020C3F80812C3F81022704770B582B0F1
:102FF0000446D0F8B86208780D46002210F060014F
:103000008DF80720ADF8042010D020291FD1EA88C0
:103010001AB300062AD46878314686F800022046A2
:1030200086F8012200F0AEF8002455E068780B28FD
:1030300029D00A282DD0C0BB94F89C0203283AD18D
:1030400001A92046022200F0B7F8002444E02046FF
:10305000294600F08DF802243EE0D4F8BC0229464F
:103060008368687800220024984735E0D4F8BC02D1
:103070003146836868789847EA882046314600F0F0
:103080009BF8002428E094F89C02032819D100241E
:1030900022E094F89C02032819D10DF10701204683
:1030A000012200F089F8002416E02046294600F0AD
:1030B0005FF8022410E02046294600F059F8022467
:1030C0000AE02046294600F053F8022404E0204696
:1030D000294600F04DF80224204602B070BD0000E1
:1030E00080B5D0F8B8223AB1D2F8141200294FF0C6
:1030F000010103D0084680BD022080BDC2F8141231
:10310000D2F81012D2F8082201638BB2812100F0AC
:103110009FFB0021084680BD80B5D0F8B4225268DC
:103120009047002080BD000080B590F89C22013AB5
:10313000022A09D84988012918BF80BD0021C0F89A
:10314000A41200F047F880BD00F012F880BD000026
:1031500080B513460A46002100F0DAFA002080BD4F
:1031600080B513460A46002100F072FB002080BDA6
:1031700010B58021044600F051FB2046002100F0EC
:103180004DFB10BD80B513460A460321C0F89412CA
:103190000021C0E9573300F0BBFA002080BD0000D9
:1031A00080B50521C0F8941200210022002300F010
:1031B000AFFA002080BD000080B513460A46022108
:1031C000C0F894120021C0E9073300F041FB002051
:1031D00080BD000080B50421C0F8941200210022B7
:1031E000002300F035FB002080BD000010B540F248
:1031F0008414C2F200040A4602A0214600F024F919
:10320000204610BD43444320436F6E66696700004B
:1032100040F230101222C2F200000A807047000013
:1032200010B540F28414C2F200040A4602A02146FE
:1032300000F00AF9204610BD43444320496E7465EE
:10324000726661636500000040F254100422C2F20D
:1032500000000A807047000010B540F28414C2F2EA
:1032600000040A4602A0214600F0EEF8204610BDF8
:1032700053544D6963726F656C656374726F6E69E8
:103280006373000010B540F28414C2F200040A46D1
:1032900002A0214600F0D8F8204610BD53544D330B
:1032A00032205669727475616C20436F6D506F7275
:1032B0007400000080B51A200880FDF783F840F202
:1032C0005810C2F2000080BD80B5C988012910D114
:1032D00090F89C124A1E022A04D20022014641F8AC
:1032E000082F02E0032904D1011D0122FFF764FF2A
:1032F00080BDFFF73DFF80BDB0B582B00446488871
:103300000D464FF0FF3101EB102100220629ADF8E8
:10331000062053D8DFE801F00414085252212A0095
:10332000D4F8B002026841E0C0B2052846D8DFE810
:1033300000F003292D313539D4F8B002426834E069
:10334000217CD4F8B40200290CBF816AC16A0DF156
:10335000060088470146022012E0207C70BBD4F8AA
:10336000B402416B0DF10600884723E0207C28BBA6
:10337000D4F8B402016B0DF106008847014607201E
:10338000487018E0D4F8B00282680EE0D4F8B002B9
:10339000C2680AE0D4F8B002026906E0D4F8B002CC
:1033A000426902E0D4F8B00282693AB1207C0DF1A2
:1033B000060190470146012030B914E02046FFF78E
:1033C000D7FE0021002070B1BDF8060048B1EA88A0
:1033D0003AB1904238BF02462046ADF80620FFF7CA
:1033E000EBFEE88808B102B0B0BD2046FFF7F2FE60
:1033F00002B0B0BD017849B1411E00208A78013089
:10340000002A01F10101F9D1C0B270470020C0B219
:103410007047000080B590F89C22013A022A0FD82C
:10342000C98802290CD1D0F8A4120322002908BFB0
:103430000122014641F80C2F0222FFF7BDFE80BD9C
:10344000FFF796FE80BD000070B5F0B11646054648
:103450000C46FFF7CFFF022101EB400030802070C7
:10346000032060702878002808BF70BD691E022202
:10347000002300BFD6B246F00105A05563558878F9
:103480000232002801F10101F4D170BD032884BF8C
:103490000220704740F20021C000C0F2012121FA51
:1034A00000F0C0B270470000002804BF022070473F
:1034B00080B5D0F8B432002B1CBF0023C0F8B43262
:1034C000002918BFC0F8B012012180F89C120270C8
:1034D00000F0BEF8002080BD80B5D0F8C002FDF736
:1034E000CFFCFFF7D3FF80BD80B5D0F8C002FDF759
:1034F000A1FCFFF7CBFF80BDB0B5044669B1D4F89D
:10350000B40242693AB194F89C02032803D12046E0
:103510009047002050E00220B0BDD4F8940200286B
:1035200018BF042804D12046802100F077F93AE042
:10353000022838D1D4E90810814208D9081A83B288
:103540002062204611461A46FFF70AFE13E0E169A1
:10355000814217D3B1FBF0F202FB101090B9D4F8FE
:10356000980281420ED22046002100220025FFF75A
:10357000F7FDC4F89852204600210022002300F0F5
:10358000C7F810E0D4F8B402C16829B194F89C02DD
:10359000032801D1204688472046802100F03EF9CB
:1035A0002046FFF7FDFD94F8A00201284FF000002F
:1035B00004BF84F8A002B0BDB0BD0000B0B50446A1
:1035C00069B1D4F8B40282693AB194F89C02032834
:1035D00003D12046904700251AE00220B0BDD4F860
:1035E00094020025052815D0032811D1D4E95810DC
:1035F000814217D9091AC4F86011814238BF0846C0
:1036000083B2204611461A46FFF7A2FD0020B0BD46
:103610002846B0BD20460021C4F8945200F0FEF8C0
:103620002846B0BDD4F8B402016929B194F89C02CF
:10363000032801D1204688472046FFF7CBFD002014
:10364000B0BD000080B5D0F8C002FDF7D7FD80BD49
:1036500010B5044642F69C2045F60041C2F2000037
:10366000C4F20001C0F8E842C4F8C00208220223F4
:1036700080E80E000021C0E906110162FDF71CFF81
:10368000002818BFFCF794FED4F8C00200210022E5
:103690001823FDF78FFBD4F8C002802100225823A5
:1036A000FDF788FBD4F8C00281210022C023FDF77A
:1036B00081FBD4F8C002012100224FF48873FDF78A
:1036C00079FBD4F8C002822100224FF48073FDF709
:1036D00071FB002010BD0000D0F8C00201F07F0295
:1036E00002EB820200EBC20000F12A02090658BF79
:1036F00000F5B5721078704780B59446D0F8C002D6
:103700001A466346FDF784FDFFF7C0FE80BD00004A
:1037100080B5D0F8C002FDF7ABFDFFF7B7FE80BD66
:10372000F0B581B000210022402304460025402648
:10373000FFF7E2FF01272046802100224023C4F842
:103740005871C4F86461FFF7D7FFD4F8B802A761D5
:10375000666284F89C72C4F894526560C4F8A452FE
:1037600028B1D4F8B40200214268204690470020D6
:1037700001B0F0BD90F89C12042904BF90F89D128E
:1037800080F89C120020704780B590F89C120329A5
:1037900005D1D0F8B412C969002918BF88470020A4
:1037A00080BD0000024600201174704780B5D0F83B
:1037B000C002FDF73DFFFFF769FE80BDB0B500F523
:1037C0002A750446284600F04BF894F8A802012117
:1037D000B4F8AE22C4F8941200F01F010229C4F814
:1037E000982208D001290CD089B92046294600F03A
:1037F000D3F80020B0BD2046294600F007F900208C
:10380000B0BD2046294600F0A5F90020B0BD00F06B
:103810008001204600F002F80020B0BD80B5D0F84D
:10382000C002FDF73FFDFFF731FE80BD80B5D0F847
:10383000C002FDF71BFFFFF729FE80BD014690F88F
:103840009C02042281F89D02002081F89C2270478E
:1038500080B5D0F8C002FDF75BFDFFF717FE80BD15
:103860000A7802704A7842704A8842808A88828048
:10387000C988C1807047000000290EBF0220C0F82F
:10388000B412002070470000B0B58A88044642B9DF
:10389000C88830B948887F2803D894F89C12032937
:1038A00003D12046FFF764FCB0BD00F07F05204641
:1038B000294684F89E52FFF779FF2046FFF78AFCDD
:1038C000002D14BF0220012084F89C02B0BD00002E
:1038D00080B5D0F8B42232B112689047002818BFE2
:1038E0000120400080BD022080BD0000B0B54A88A4
:1038F00040F28015D1B20446C2F2000502292A70B6
:1039000003D32046FFF734FCB0BD94F89C02032893
:103910000CD002281AD141B3032084F89C0220461F
:103920006160FFF7D5FF0228EBD01EE0B1B16068FF
:1039300088421AD0C1B22046FFF7EEFB2978204614
:103940006160FFF7C5FF02280FD1DAE72046FFF7D5
:103950000FFC29782046FFF7DFFBB0BD022084F87A
:103960009C0220466160FFF7D7FB2046FFF732FC40
:10397000B0BD000080B54988012918BF80BD012174
:10398000C0F8A412FFF726FC80BD000080B5FFF749
:103990004DFF002080BD000080B50A7812F0600263
:1039A00009D0402A01D0202A13D1D0F8B42292683D
:1039B0009047002080BD4A78092A0AD8DFE802F043
:1039C000050D091109152109191DFFF723FD002017
:1039D00080BDFFF7CDFB002080BDFFF7A5FB0020D9
:1039E00080BDFFF7C7FF002080BDFFF74DFF00201F
:1039F00080BDFFF769FC002080BDFFF777FF002046
:103A000080BDFFF779FC002080BD0000B0B50A46FC
:103A10000978044611F060010BD0402901D020291B
:103A200019D1D4F8B4021146836820469847002083
:103A3000B0BD5078117998B101282CD0032868D1F5
:103A400094F89C02032839D0022862D141F080000A
:103A500080285ED029E02046FFF78AFB0020B0BD19
:103A600094F89C02032835D0022852D141F08000FE
:103A700080284ED101F07F0000EB800004EB800035
:103A800000F11402090658BF00F5AA720020106068
:103A90002046114658E094F89C0203283ED00228A4
:103AA00037D141F08000802833D02046FFF7B6FEA2
:103AB00020468021FFF7B2FE0020B0BD5088A8BB91
:103AC00041F08000802831D0D08878BB2046FFF7B5
:103AD000A5FE2BE001F00F0202EB820211F0800044
:103AE00004EB82020CBFD2F8582192698AB101F02E
:103AF0007F0202EB820204EB820202F1140500282D
:103B000041F0800008BF02F5AA75802813D100207B
:103B100017E02046FFF72CFB0020B0BD508800289E
:103B20009CD1480602D02046FFF7D6FC2046FFF77E
:103B300051FB0020B0BD2046FFF7CEFD0028E6D0A7
:103B400001202860204629460222FFF735FB00208D
:103B5000B0BD0000B0B50D460978044611F0600113
:103B600018BF40290DD194F89C020138022803D8CF
:103B7000A88810F0FE0F0BD02046FFF7F9FA0020BE
:103B8000B0BD2029EFD02046FFF7F2FA0020B0BDEB
:103B9000D4F8B40229468268204690470028F5D11F
:103BA000E8880028F2D12046FFF714FB0020B0BDC2
:103BB0007047000040F28430C2F2000070470000FD
:103BC0002DE9F0410C78024691F803E000EB8408FF
:103BD00030F8240047F27065BEF1030F20EA0505B6
:103BE00007D80020DFE80EF002070D0A45F4007543
:103BF00006E0012005E045F4806501E045F4C0657C
:103C0000002048F2800C45EA0C03A8F80030B8F810
:103C1000003040F60F752B40234343EA0C03A8F80D
:103C200000300B7B002B51D0B8F8003040F60F6508
:103C30002B400CF580752B43A8F80030B2F85030BB
:103C40000E8902F58067250107EB041426F00106B2
:103C5000E652B2F850204C8905F108033B4424F0A9
:103C600001049C524978B8F80020002902F48041F0
:103C700054D049B1B8F8001040F60F7211400CF55D
:103C800080421143A8F80010B8F80010490609D581
:103C9000B8F8001040F60F7211400CF140021143C9
:103CA000A8F80010B8F8001040F63F7211400CF16F
:103CB00020024A40BEF1010F08BF41EA0C02A8F8F9
:103CC0000020B8F8001043F60F724EE04B78B2F8BF
:103CD0005050002B4FEA04144ED0C98822442A4485
:103CE00021F00101A2F80014B8F80010490609D526
:103CF000B8F8001040F60F7211400CF14002114369
:103D0000A8F80010B8F8001040F63F72BEF1010F9D
:103D100001EA02012AD00CF1200275E049B1B8F89D
:103D2000001040F60F7211400CF580421143A8F8C4
:103D30000010B8F80010490609D5B8F8001040F690
:103D40000F7211400CF140021143A8F80010B8F8AE
:103D5000001043F60F7211400CF540525140A8F884
:103D60000010B8F8001040F63F72114041EA0C0113
:103D7000A8F80010BDE8F081CF8844F0080E02F5E5
:103D800080639E4427F001072EF80570B2F850209A
:103D90000D6944F00C0119443DB13E2D11D805F0D8
:103DA000010303EB55039D0218E0535A48F2000744
:103DB00023F4F8435352535ACFF6FF7743EA0705EB
:103DC0000CE06B094FF0FF37EC0608BF07EB55130B
:103DD00048F20007CFF6FF7747EA83255552B8F837
:103DE0000010490409D5B8F8001040F60F721140D0
:103DF0000CF580421143A8F80010B8F8001043F603
:103E00000F7211400CF540525140A8F80010BDE867
:103E1000F08100000020704780B50B784A78097B5C
:103E200030F823E048F2C00C00EB830341B30EF4FA
:103E3000804062B338B1188840F60F7108400CF525
:103E40007F51084318801888400606D5188840F628
:103E50000F71084040EA0C001880188840F60F7176
:103E600008400CF57F5108431880188840F63F71D0
:103E70000840ACF140010843188043F60F7045E05C
:103E800052B35FEA4E602DD440F63F703EE038B149
:103E9000188840F60F7108400CF57F5108431880D0
:103EA0001888400606D5188840F60F71084040EA89
:103EB0000C001880188840F60F71084040EA0C008A
:103EC0001880188843F60F710840ACF14001084390
:103ED000188040F63F7019E05FEA4E400CD443F67C
:103EE0000F7013E0188840F60F71084040EA0C008C
:103EF000188040F63F7009E0188840F60F710840BE
:103F00000CF57F510843188043F60F70198808405C
:103F1000ACF1400101430020198080BD00207047B2
:103F20000020704701460120A1F840000022002037
:103F3000A1F84020A1F84420A1F8502070470000CB
:103F40000146B0F8400044F2FF0202400020A1F810
:103F5000402070470020704780B50A7B0AB10020DE
:103F600080BD0A784B7830F822C04FEA4202C3B1D4
:103F70005FEA4C6348F2A00C0BD530F812E040F633
:103F80000F730EEA030E0CF1200343EA0E0320F830
:103F90001230C9780129E2D030F8121040F63F7390
:103FA00012E05FEA4C414BF2800C09D530F8123038
:103FB00040F60F7119400CF58053194320F8121088
:103FC00030F8121043F60F73194081EA0C0120F803
:103FD0001210002080BD000002460B78487832F8AD
:103FE00023C040F63F71002848F2900008BF43F616
:103FF0000F71CFF6FF7008BF00F57F6001EA0C017A
:104000004140002022F82310704700002DE9F041C4
:104010000D4649788046012943D1AE692A69287B3B
:10402000964288BF164600285BD0E878022840F008
:10403000888028782B6A38F8204040F60F6C93422D
:1040400004EA0C024BF280044FEA4007CFF6FF74FB
:1040500040F2C280A4F53C54224328F817209A1B52
:104060002A6238F817204BF28007520600F1F280DE
:10407000012900F02E81002940F03B82000104302C
:10408000B8F850104044002E00F5806000F0158212
:104090003E2E00F2228206F0010202EB560292024C
:1040A00026E2287B78B3E878012868D0022840F01F
:1040B0008780002940F03581B8F8502028782B6996
:1040C000000142440430002B02F5806200F0F680CB
:1040D0003E2B00F2188103F0010707EB53039B020C
:1040E0001EE16969EA88B3B2404600F0E9FAB8F81F
:1040F000500029784044090104310844A0F80064C4
:1041000042F6D070C5E1AA692869111A38BF0021AA
:1041100088BF0246A961B8F8503029784BF2800078
:10412000090143440C31002A03F580634BD03E2A39
:1041300000F2838002F0010707EB52029202CA529A
:104140005DE12A7838F8220040065ED4012900F0AB
:10415000A380002940F0728111010431B8F85000A9
:104160004144002E01F5806100F04C813E2E00F2AA
:10417000598106F0010202EB560292025DE12869C4
:10418000AA69131A38BF002388BF02460129AB6110
:1041900078D0002940F0FA80B8F8503028784344AD
:1041A00000010430002A03F5806300F09B803E2A62
:1041B00000F2E08002F0010707EB5207BF02E4E0E3
:1041C0000120BDE8F081CA5A22F4F842CA52CA5A04
:1041D00042F40042CA5212E1A4F54051114328F8BA
:1041E00017100001B8F85010043040440844A0F8FB
:1041F00000342A8969699BB2404600F061FA42F6B0
:10420000D070201A40F63F7116E201294DD00029E6
:1042100040F0238111010C31B8F850004144002EC8
:1042200001F5806100F0F6803E2E00F20A8106F072
:10423000010202EB560292020EE157094FF0FF36DF
:10424000D40608BF06EB52174FF4004242EA872219
:10425000CA52D4E001294DD0002940F090810001DC
:104260000C30B8F850104044002E00F5806000F08B
:104270002C813E2E00F2778106F0010202EB5602FD
:1042800092027BE1B8F850002B7840441B010433C4
:104290001844A0F8002479E01101B8F85000043166
:1042A00041440844A0F80064C8E01101B8F8500087
:1042B0000C3141440844A0F80064CEE0835A48F22F
:1042C000000723F4F8438352835ACFF6FF773B432A
:1042D00026E00001B8F85010043040440844A0F82B
:1042E000006406E1C75A27F4F847C752C75A47F493
:1042F00000474AE00001B8F850100C304044084430
:10430000A0F800643BE15F094FF0FF36DC0608BF10
:1043100006EB531748F20003CFF6FF7343EA8723F7
:104320008352012913D000294FD1B8F850102878B2
:104330002A69000141440C3001F5806192B13E2AA6
:1043400037D802F0010303EB520292023CE0B8F8C6
:1043500050002978404409010C312A690844A0F82A
:10436000002432E0425A22F4F8424252425A42F4C5
:10437000004229E057094FF0FF36D40608BF06EB8C
:1043800052174FF4004646EA8727C75201294BF2DD
:10439000800004D099BBB8F850302978C0E6B8F84E
:1043A00050102B7841441B010C331944A1F8002410
:1043B00025E053094FF0FF37D60608BF07EB52132D
:1043C0004FF4004242EA83224252E86900284BF24D
:1043D000800014D0297844F2400338F821201A4094
:1043E0009A4218BF002A0AD1490038F8112040F635
:1043F0000F731A40A0F53F531A4328F8112043F6D3
:104400000F7119E1425A22F4F8424252425A42F4E0
:10441000004212E0425A22F4F8424252425A42F416
:10442000004219E072094FF0FF33F70608BF03EBB3
:1044300056124FF4004343EA8222425205F108002B
:104440000DE072094FF0FF33F70608BF03EB561279
:104450004FF4004343EA8222425205F10A000288E7
:104460006969B3B240464BF2800700F029F96978D8
:1044700042F6D070012914D059B9287840F60F724D
:1044800038F820101140A7F53F52114328F82010AA
:10449000CDE04BF28001CFF6FF71081A40F63F7174
:1044A000CAE0297840F60F7338F821201A4007F542
:1044B00080531A4328F82120BBE00A5A22F4F8421C
:1044C0000A520A5A42F4004212E00A5A22F4F8420E
:1044D0000A520A5A42F4004250E072094FF0FF3388
:1044E000F40608BF03EB56124FF4004343EA82225E
:1044F0000A522A896969B3B2404600F0E1F8686956
:104500002A698119286A00236961904288BF831B48
:104510006A7888BF3046012A2B6211D0CAB9B8F830
:1045200050302A78434412010C3203F5806390B175
:104530003E285DD800F0010606EB5006B60262E0A8
:10454000B8F850202B7842441B010C331A44A2F8CF
:1045500000046A8967E0D65A26F4F846D652D65A3D
:1045600046F400464FE072094FF0FF33F40608BFEF
:1045700003EB56124FF4004343EA82220A526A893F
:104580006969B3B2404600F09BF868692A698119ED
:10459000286A00236961904288BF831B6A7888BFBC
:1045A0003046012A2B6211D0E2BBB8F850302A788D
:1045B00043441201043203F5806388B13E2825D8B4
:1045C00000F0010606EB5006B6022AE0B8F85020CB
:1045D0002B7842441B0104331A44A2F8000421E062
:1045E000D65A26F4F846D652D65A46F4004618E073
:1045F0004609C4064FF0FF3C08BF0CEB50164FF4C1
:10460000004444EA8626D6526A890CE04609C4066C
:104610004FF0FF3C08BF0CEB50164FF4004444EA47
:104620008626D6522A8983B2404600F049F842F6DF
:10463000D070381A40F63F712A7838F82230194085
:10464000484028F822000020BDE8F0810146002003
:10465000A1F844004FF43F420020A1F840207047E9
:1046600080B542F69C20C2F20000FCF76DFE80BDD2
:10467000B0F844007047000000EB42000022B2EBAB
:10468000530F00F580620BD058080239043A00BF7E
:1046900032F804CF013821F802CFF9D102310432C7
:1046A000D8071CBF108808707047000000207047B2
:1046B000002904BF8021A0F84C10002070470000A2
:1046C00003F1010C0023B3EB5C0F08BF704700EB54
:1046D00042024FEA5C03881E02F57F7130F8022F18
:1046E000013B21F8042FF9D170470000FEE70000DC
:1046F000002848BF704700F01F01012202FA01F1B3
:104700004EF280224009CEF2000242F8201070479B
:10471000002848BF704700F01F01012202FA01F192
:104720004EF200124009CEF2000242F8201070470B
:104730004EF60C50CEF200000068C0F30220704725
:104740004EF6145300F00F02CEF2000309011A4492
:1047500000F16043B0F1FF3FC8BF03F56442117040
:10476000704700004EF60C51CEF200010A684FF679
:10477000FF031A4060F30A2242F0806040F0FD70AF
:104780000860704742F68851C2F20001884210D09A
:1047900040F6745342F6C852C2F2000341F2580187
:1047A000C2F200021944904208BF03F62C010846E9
:1047B000704740F67450C2F20000704782B040F675
:1047C0007454C2F20004204641F68801FBF7B1FCA4
:1047D00042F6885193A0C2F20001C4E9000142F6FA
:1047E000041042F64811C2F20000C2F20001C4E90E
:1047F000030144F6A330C0F60000C4F8280842F6CE
:104800008C102521C2F20000217288A1C4F838085A
:1048100044F6B33004F62C07C4F82C1842F6D01135
:10482000C0F60000C2F20001C7F828082620C4F82C
:104830003C1884F834087FA041F25801605042F6D9
:10484000086004EB0108C2F2000042F6C852C8F842
:10485000040042F6142042F65821C2F20002C2F2CD
:104860000000C2F20001C4F83028C8E9030144F690
:10487000C330C0F60000C8F82808272088F80800D0
:1048800042F6C000C2F2000041F684016050FCF71D
:104890001BFAFEF7ABF8FDF7D9FDFDF779FDFDF743
:1048A0003BFEFDF755FEFDF76FFEFDF789FE40F27A
:1048B0007414C2F2000400BF206818B16420FCF731
:1048C000C3F8F9E741F200044FF47A70C4F201042E
:1048D000FCF7BAF844F6D330C0F600004FF480710C
:1048E000FBF7C8FC42F64C690025C2F20009A4F5AA
:1048F0008060019009E000BF41F20000C4F20100B5
:104900004FF400510022FCF7C5F94FF0010A46466A
:1049100040F67450BAF1020F08BF3E46C2F20000E2
:10492000BAF1010F08BF0646D6F82008D6F824B819
:1049300083451BD0D6F828080A21FBF79BFC06F11B
:10494000140202EB8B01D9F80000D1F800180028FE
:1049500002EB4B20C9B202D0FBF7B2FC01E0FBF73F
:10496000A3FCBBFA8BF04009C6F82408D6F81C4813
:10497000012C15DBD6F828080A21C6F81C58C6F801
:104980002458FBF777FCD9F80000E1B2002806F2C2
:10499000144003D0FBF794FC02E000BFFBF784FC5B
:1049A0000AF1010ABAF1040FB1D142F65060C2F225
:1049B0000000016842F65460C2F20000006891B144
:1049C000322899D941F20000C4F201004FF400519D
:1049D00001224FF0010AFCF75DF942F65060C2F285
:1049E0000000056093E7B0F5FA6F4FF0010A8ED32F
:1049F00042F650610120C2F20001086042F65461A3
:104A0000C2F20001086001984FF48071FCF73CF994
:104A100020B94FF0010AC9F800A078E7C9F80050A2
:104A200073E700BF554152543100000055415254C4
:104A300032000000554152543300000010B542F6D8
:104A40004861C2F20001096804460A6840688B792F
:104A50004260B3F1080218BF01220B791203826091
:104A6000002B18BF01235A034979C2604FF48062BA
:104A7000012908BF4FF4C062002908BF0A460C2173
:104A800002614161002102688161C161D16821F444
:104A90000051D160FDF700FA08B100BFFEE7606881
:104AA0000068C16841F01001C160C16841F4005163
:104AB000C16094F90800FFF71BFE6068FDF726F956
:104AC000606804F114014FF48062FDF781FB10BDB2
:104AD000F0B581B00446C068D4F820180268606858
:104AE00052684FF40073002908BF4FF480639D1A89
:104AF000FDF70CF9012D25DB0AD1D4F8200804EBD1
:104B000040204069C4F814040120C4F81C0819E0CE
:104B100040F67456D4F82018C2F2000641F6840715
:104B2000F05904EB4121143104F214422B46FBF7F7
:104B300029FFF05900210222FBF7CCFD002808BF15
:104B4000C4F81C580022606804F11401C4F820283D
:104B50004FF48062FDF73CFB01B0F0BD02E008C8F5
:104B6000121F08C1002AFAD170477047002001E0E7
:104B700001C1121F002AFBD1704700000000000095
:104B800000000102030406070809000000000102FA
:104B900003043031323334353637383941424344F7
:104BA0004546000D0A556172742D313A200000000F
:104BB0000000000D0A556172742D323A2000000089
:104BC0000000000D0A556172742D333A2000000078
:104BD0000000000D0A3D3D3D3D3D3D3D3D3D3D3D1F
:104BE0003D3D3D3D3D3D3D3D3D3D3D3D3D3D3D3DF5
:104BF0003D3D3D3D3D3D3D3D3D0D0A556172742DB0
:104C0000313A202052782D504131302020205478E4
:104C10002D5041390D0A556172742D323A202052BF
:104C2000782D504133202020202D0D0A55617274BB
:104C30002D333A202052782D504231312020202D22
:104C40000D0A0D0A73686F7274205042372D50425E
:104C5000382C207072696E7420696E204865782047
:104C60006D6F64652C206F720D0A73686F7274200B
:104C70005042382D5042392C207072696E74206970
:104C80006E204153434949206D6F64650D0A0D0A3A
:104C900055617274207370656564203D20555342E0
:104CA0002D5643502073706565642E0D0A3D3D3DC1
:104CB0003D3D3D3D3D3D3D3D3D3D3D3D3D3D3D3D24
:104CC0003D3D3D3D3D3D3D3D3D3D3D3D3D3D3D3D14
:104CD0003D0D0A00F84C0008000000208001000093
:104CE0006C010008C04D000880010020E034000085
:104CF0006C4B0008000000001311321B0849041A15
:104D000059041A85041AB50413ED311B0821081142
:104D10001324F413112F1C08652E141908411AA925
:104D20000C13E52D1B083508C11AF1101AE1041AFD
:104D300001281AD1081409024313020125C03209BF
:104D4000041B01020B130524161001052401100990
:104D50000104240202052406170107058203081531
:104D60001009040133020A2E0705010240072A81B7
:104D70000711093744113A02441907112B0A060694
:104D8000112B4001502A07500A3B04941A121713A2
:104D900002021E40830440574D1B020359131502A3
:104DA0001B08110413C9011B084108071A04030951
:104DB000041A03298C2904321000000000000000AE
:04000005080000ED02
:00000001FF
